:020000020000FC
:1000000008ED0CBF00E007BF08ED0CBF00E006BF25
:100010000FEF09BF01E001B900E002B932D05AD0B8
:100020006F936FEF47D068EC45D06F9182D087D047
:100030006F936FEF3FD068EC3DD06F917AD0B6D020
:10004000DBD0DAD0D9D05BD0C2D00CD1E7D00AD186
:10005000E5D008D1E3D006D1E1D004D1DFD002D180
:10006000DDD04BD14AD149D1DACF18E0109A000047
:1000700037FD06D0330F109803D01A95B9F70895BD
:10008000089510980FEF0A95F1F708950F930AEF6E
:1000900004D00A95F1F70F9108954F934AEF4A95CE
:1000A000F1F74F9108950F930AE0F0DF0A95E9F711
:1000B0000F910895F8DF6A95E9F708956F936FEF50
:1000C000F9DF68ECF7DF6F9108956F9364E1F2DF79
:1000D0006F91089548E151E01FD063956517E1F7EE
:1000E00068E1651B19F011D06A95E9F7CADF6F93D3
:1000F00064E1E0DF6F9153954A9571F7089548E107
:1001000004D04A95E9F7BDDF089530E0AEDF30E076
:10011000ACDF30E0AADF089532E3A7DF3FEFA5DFD1
:1001200030E0A3DF08954F9341E54A95F1F74F91F1
:100130000895E5DF6F936FEFBDDF6F91089548E19C
:1001400051E068E1593189F0583121F0DEDF6A95DC
:100150006517C1F7E1DF6A95E9F793DF6F9364E113
:10016000A9DF6F91539568E1EDCF089534E67DDF07
:1001700034E67BDF34E679DF0895372F76DF382FDA
:1001800074DF392F72DF089522D07191819191919E
:100190000895703029F4803029F4903029F40895BE
:1001A0007550F9CF8550F9CF9550089510D048E19A
:1001B00053E048E109D0E9DFE0DF4A95E9F761DF84
:1001C0007DDF5A95B1F70895ED5FFF4F0895E4ED97
:1001D000F1E40895010000FF000000010000FF00AD
:1001E0000000010000FF010100FFFF00000101000D
:1001F000FFFF010001FF00FF48E156E048E1B6DFE4
:100200004A95E9F73EDF61DF7ADF5FDF5A95B1F7A4
:1002100048E1ACDF4A95E9F734DF089548E1B6E0FC
:1002200054E3B3DF48E1B5DFA8DF4A95E9F729DFFA
:100230004CDF5A95B9F70895703029F4803041F4B5
:10024000903059F408957F3F09F470E07B5FF6CF5A
:100250007F3F09F470E08B5FF3CF7F3F09F470E0DC
:100260009B5F089548E1B6E054E38FDF48E1E4DFA7
:1002700084DF4A95E9F705DF28DF5A95B9F7089535
:1002800000FF0000FF0000FF0000FF00FF0000FF74
:100290000000FF0000FF0000FF0000FF0000FF0063
:1002A00000FF0000FF0000FF0000FF0000FF000053
:1002B000FF0000FF0000FF0000FF0000FF0000FF44
:1002C0000000FF0000FF0000E0E8F2E4089548E1CC
:1002D0000AD0583429F04A95D9F7F6DF5527089502
:1002E000F3DF5527F8CF31915395BFDE3191539508
:1002F000BCDE31915395B9DE0895E6DF50E0E7DFCB
:10030000C0DEE3DE56E477D0E2DFBBDEDEDE53E4C0
:1003100072D0DDDFB6DED9DE50E46DD0D8DFB1DEDD
:10032000D4DE5DE368D0D3DFACDECFDE5AE363D04A
:10033000CEDFA7DECADE57E35ED0C9DFA2DEC5DEB0
:1003400054E359D0C4DF9DDEC0DE51E354D0BFDF9B
:1003500098DEBBDE5EE24FD0BADF93DEB6DE5BE254
:100360004AD0B5DF8EDEB1DE58E245D0B0DF89DE9F
:10037000ACDE55E240D0ABDF84DEA7DE52E23BD0FC
:10038000A6DF7FDEA2DE5FE136D0A1DF7ADE9DDE72
:100390005CE131D09CDF75DE98DE59E12CD097DF2F
:1003A00070DE93DE56E127D092DF6BDE8EDE53E106
:1003B00022D08DDF66DE89DE50E11DD088DF61DE70
:1003C00084DE5DE018D083DF5CDE7FDE5AE013D090
:1003D0007EDF57DE7ADE57E00ED079DF52DE75DE43
:1003E00054E009D074DF4DDE70DE51E004D06FDFE1
:0E03F00048DE6BDE0895BB27E50FFB1F089566
:00000001FF
